{
  "transactions": [
    {
      "hash": "0x9996a9dc7fccfd5b77f28562d5b8688fbb7758ad7e54e920a36c1c1de3009f87",
      "transactionType": "CALL",
      "contractName": "LinkToken",
      "contractAddress": "0x779877a7b0d9e8603169ddbd7836e478b4624789",
      "function": "transferAndCall(address,uint256,bytes)",
      "arguments": [
        "0x9DdfaCa8183c41ad55329BdeeD9F6A8d53168B1B",
        "1000000000000000000",
        "0xd38808542b52dbb89fc64e1252f49d2f373222585d7ef8772fa5d1ab181c2084"
      ],
      "transaction": {
        "from": "0x5508459a9622f327b05eb0aa85971fc9b2ea9a8d",
        "to": "0x779877a7b0d9e8603169ddbd7836e478b4624789",
        "gas": "0x1c1ff",
        "value": "0x0",
        "input": "0x4000aea00000000000000000000000009ddfaca8183c41ad55329bdeed9f6a8d53168b1b0000000000000000000000000000000000000000000000000de0b6b3a764000000000000000000000000000000000000000000000000000000000000000000600000000000000000000000000000000000000000000000000000000000000020d38808542b52dbb89fc64e1252f49d2f373222585d7ef8772fa5d1ab181c2084",
        "nonce": "0xe1",
        "chainId": "0xaa36a7"
      },
      "additionalContracts": [],
      "isFixedGasLimit": false
    }
  ],
  "receipts": [
    {
      "status": "0x1",
      "cumulativeGasUsed": "0x11a8ee5",
      "logs": [
        {
          "address": "0x779877a7b0d9e8603169ddbd7836e478b4624789",
          "topics": [
            "0xddf252ad1be2c89b69c2b068fc378daa952ba7f163c4a11628f55a4df523b3ef",
            "0x0000000000000000000000005508459a9622f327b05eb0aa85971fc9b2ea9a8d",
            "0x0000000000000000000000009ddfaca8183c41ad55329bdeed9f6a8d53168b1b"
          ],
          "data": "0x0000000000000000000000000000000000000000000000000de0b6b3a7640000",
          "blockHash": "0xd6c6b107cd9f3ae923ec2b69d5ad687caa0bed3b8901ddf1d7379d1b7a84efc7",
          "blockNumber": "0x5c08c3",
          "transactionHash": "0x9996a9dc7fccfd5b77f28562d5b8688fbb7758ad7e54e920a36c1c1de3009f87",
          "transactionIndex": "0x42",
          "logIndex": "0x6f",
          "removed": false
        },
        {
          "address": "0x779877a7b0d9e8603169ddbd7836e478b4624789",
          "topics": [
            "0xe19260aff97b920c7df27010903aeb9c8d2be5d310a2c67824cf3f15396e4c16",
            "0x0000000000000000000000005508459a9622f327b05eb0aa85971fc9b2ea9a8d",
            "0x0000000000000000000000009ddfaca8183c41ad55329bdeed9f6a8d53168b1b"
          ],
          "data": "0x0000000000000000000000000000000000000000000000000de0b6b3a764000000000000000000000000000000000000000000000000000000000000000000400000000000000000000000000000000000000000000000000000000000000020d38808542b52dbb89fc64e1252f49d2f373222585d7ef8772fa5d1ab181c2084",
          "blockHash": "0xd6c6b107cd9f3ae923ec2b69d5ad687caa0bed3b8901ddf1d7379d1b7a84efc7",
          "blockNumber": "0x5c08c3",
          "transactionHash": "0x9996a9dc7fccfd5b77f28562d5b8688fbb7758ad7e54e920a36c1c1de3009f87",
          "transactionIndex": "0x42",
          "logIndex": "0x70",
          "removed": false
        },
        {
          "address": "0x9ddfaca8183c41ad55329bdeed9f6a8d53168b1b",
          "topics": [
            "0x1ced9348ff549fceab2ac57cd3a9de38edaaab274b725ee82c23e8fc8c4eec7a",
            "0xd38808542b52dbb89fc64e1252f49d2f373222585d7ef8772fa5d1ab181c2084"
          ],
          "data": "0x00000000000000000000000000000000000000000000000000000000000000000000000000000000000000000000000000000000000000000de0b6b3a7640000",
          "blockHash": "0xd6c6b107cd9f3ae923ec2b69d5ad687caa0bed3b8901ddf1d7379d1b7a84efc7",
          "blockNumber": "0x5c08c3",
          "transactionHash": "0x9996a9dc7fccfd5b77f28562d5b8688fbb7758ad7e54e920a36c1c1de3009f87",
          "transactionIndex": "0x42",
          "logIndex": "0x71",
          "removed": false
        }
      ],
      "logsBloom": "0x00000004000000000000000000000000000000000028000010000000020000000000000000000000000000000000000000000000000000000000000000000000000000000000000208000008000000000000000000000000000020000020000008000000000000000000000000000000000000000000000000000010000040020000000000000000000000010000800000000020000000000000000000000000000000000000000000000000010000000000000000000000000004000000000000000002000000000000000000000000000000000000000110000000000000000010000000000000800000000000000000000000000000000000000000000000",
      "type": "0x2",
      "transactionHash": "0x9996a9dc7fccfd5b77f28562d5b8688fbb7758ad7e54e920a36c1c1de3009f87",
      "transactionIndex": "0x42",
      "blockHash": "0xd6c6b107cd9f3ae923ec2b69d5ad687caa0bed3b8901ddf1d7379d1b7a84efc7",
      "blockNumber": "0x5c08c3",
      "gasUsed": "0x133b1",
      "effectiveGasPrice": "0x4b2487826",
      "from": "0x5508459a9622f327b05eb0aa85971fc9b2ea9a8d",
      "to": "0x779877a7b0d9e8603169ddbd7836e478b4624789",
      "contractAddress": null
    }
  ],
  "libraries": [],
  "pending": [],
  "returns": {},
  "timestamp": 1717419540,
  "chain": 11155111,
  "commit": "806e147"
}